:100000000C9432130C945A130C945A130C945A13E4
:100010000C945A130C945A130C945A130C945A13AC
:100020000C945A130C945A130C94321F0C94A11F65
:100030000C945A130C945A130C945A130C945A138C
:100040000C945A130C941D220C945A130C945A13AA
:100050000C945A130C945A130C945A130C94D321E5
:100060000C945A130C945A130C945A130C945A135C
:100070000C945A130C945A130C945A130C945A134C
:100080000C945A130C945A130C945A130C945A133C
:100090000C945A130C945A130C945A130C945A132C
:1000A0000C945A130C945A130C945A13FFE0FFD17A
:1000B000AFFF32FFD0FFFEFFE0FFD1AEFFD0FFFE6B
:1000C000FFE0FFD11000FFFEFFD0FFE0FFC1FFD136
:1000D000AED580A83FD300408D142000A1C8DA120D
:1000E00081CFD9F1DB402EA4A6AFFFD0FFFE0000E8
:1000F0000000250028002B002E0031000000000029
:100100002300260029002C002F0000000002000917
:100110000F0000030401000C0000000000000000BC
:10012000000000000000000000080B0002020200B6
:10013000000904000001020200000524001001056E
:10014000240101010424020605240600010705819B
:100150000310004009040100020A00000007050224
:100160000240000007058302400000040309041256
:10017000010002EF02014041233780000101020328
:100180000141726475696E6F204C4C43004172648A
:1001900075696E6F204D6963726F00000000002466
:1001A0000027002A002D00300004080201104080C2
:1001B000401020408040800802040180402010024E
:1001C00001108010204040200404040404030405AE
:1001D00002020202040302020202060606060606E4
:1001E000040402020204040A0B0C0D0E0F000102AB
:1001F00003040501070D00FE09016902D820FFFE76
:100200000BFE09FE0D0070222979C0C0C0C0C0C01D
:1002100000C0C0185373D8D8D81259795050F8F884
:1002200050F8F850500269793078B4B07834B47826
:1002300030026979E4ACE81830605CD49C026979DA
:1002400070D8D8D870D4DCD874272474C0C0C0C08B
:10025000124979306060C0C0C0606030124979C016
:1002600060603030306060C00366764830FCFC303F
:10027000480366763030FCFC303011447470706096
:10028000C0056171FC11437360F0600269790C0C68
:100290001818306060C0C00269793048CCCCCCCC32
:1002A000CC48300269793070B03030303030FC02E8
:1002B000697978CCCC0C3860C0C0FC026979FC0C40
:1002C0001830780C0CCC780269790C1C3C6CCCCCC6
:1002D000FC0C0C026979FCC0C0F8CC0C0CCC780288
:1002E000697978CCC0C0F8CCCCCC78026979FC0CA8
:1002F0000C18183030606002697978CCCCCC78CC9E
:10030000CCCC7802697978CCCCCC7C0C0CCC781134
:10031000487860F060000060F06011487860F0603C
:1003200000707060C00269790C183060C0603018CD
:100330000C046474FC0000FC026979C06030180C85
:10034000183060C002697978CCCC0C38300030307D
:10035000026979788C8CBCACBC808C780269797825
:10036000CCCCCCFCCCCCCCCC026979F8CCCCCCF8C5
:10037000CCCCCCF802697978CCC0C0C0C0C0CC78F5
:10038000026979F8CCCCCCCCCCCCCCF8026979FC25
:10039000C0C0C0F8C0C0C0FC026979FCC0C0C0F8D1
:1003A000C0C0C0C002697978CCC0C0DCCCCCCC7CE9
:1003B000026979CCCCCCCCFCCCCCCCCC026979FC1D
:1003C00030303030303030FC0269790C0C0C0C0CC1
:1003D0000C0CCC78026979C4CCD8F0E0F0D8CCC44D
:1003E000026979C0C0C0C0C0C0C0C0FC02697984C5
:1003F000CCFCFCCCCCCCCCCC026979CCCCECECFCED
:10040000DCDCCCCC02697978CCCCCCCCCCCCCC7834
:10041000026979F8CCCCCCF8C0C0C0C0016A7A7847
:10042000CCCCCCCCCCECDC780C026979F8CCCCCC44
:10043000F8F0D8CCC402697978CCC0C0780C0CCC68
:1004400078026979FC3030303030303030026979F0
:10045000CCCCCCCCCCCCCCCC78026979CCCCCC4834
:100460004878303030026979CCCCCCCCCCFCFCCC98
:100470008402697984CC4878307848CC84026979E0
:10048000CCCC78783030303030026979FC0C0C18E4
:100490003060C0C0FC124979F0C0C0C0C0C0C0C04C
:1004A000F0026979C0C060603018180C0C124979EC
:1004B000F030303030303030F00764743078CC8435
:1004C000016272FCFC194373C06030026676780CDE
:1004D0007CCCCC7C026979C0C0C0F8CCCCCCCCF848
:1004E00002667678CCC0C0CC780269790C0C0C7CA2
:1004F000CCCCCCCC7C02667678CCFCC0CC780269C3
:1005000079386C6060F06060606000687874CCCCB2
:1005100078C078CC78026979C0C0C0F8CCCCCCCC9B
:10052000CC0269793030007030303030FC006B7BA9
:100530000C0C000C0C0C0C0C0CCC78026979C0C0B3
:10054000C0CCD8F0F0D8CC0269797030303030307F
:100550003030FC026676D8FCFCCCCCCC026676F857
:10056000CCCCCCCCCC02667678CCCCCCCC78006829
:1005700078F8CCCCCCF8C0C0C00068787CCCCCCCAF
:100580007C0C0C0C026676F8CCC0C0C0C00266764B
:1005900078CC6018CC780268786060F86060606C35
:1005A00038026676CCCCCCCCCC7C026676CCCCCC7B
:1005B000787830026676CCCCCCFCFC48026676CCEF
:1005C000CC7878CCCC006878CCCCCCCC7C0CCC78FB
:1005D000026676FC0C1860C0FC12497970C0C060DD
:1005E000C060C0C070222979C0C0C0C0C0C0C0C037
:1005F000C0124979E030306030603030E008637319
:1006000064FC98FFFFFFFFFFFFFFFFFFFFFFFFFFFF
:10061000FFFFFFFFFFFFFFFFFFFFFFFFFFFFFFFFEA
:10062000FFFFFFFF0D0070222A7AC0C000C0C0C0CB
:10063000C0C0C0C0036878107CD4D0D0D47C100275
:100640006979386C6060F860606CB8036676CCFCE1
:100650004848FCCC026979CCCC7878FC30FC30304E
:10066000222A7AC0C0C0C00000C0C0C0C0026A7ADE
:1006700078CCC078CCCC780CCC781A5272D8D8020E
:100680006A7A78CC84B4E4E4B484CC78145777F0F4
:1006900018F898F800F80367773468D0A0D0683469
:1006A000036474FC0C0C0C154171F0026A7A78CC6E
:1006B00084BCACBCB4ACCC781B5171F807647478C2
:1006C000CCCC780367773030FC303000FC064676BF
:1006D000E0B03060C0F0064676E0B06030B0E019BF
:1006E00043733060C0016777CCCCCCCCCCFC8002AB
:1006F00069797CFCF4F4F474343434262272C0C07A
:1007000010327260C006467660E0606060F0155797
:100710007770F888F87000F8036777B0582C142CBD
:1007200058B0026A7A60E0606064FC1C343C0C02E1
:100730006A7A60E0606078EC0C18303C026A7AE01B
:10074000B06030B4EC1C343C0C026A7A30300030BB
:100750003060C0CCCC78026A7A6030003078CCCC83
:10076000FCCCCC026A7A1830003078CCCCFCCCCCF3
:10077000026A7A386C003078CCCCFCCCCC026A7A35
:100780003458003078CCCCFCCCCC026A7ACCCC008B
:100790003078CCCCFCCCCC026A7A7848783078CCF3
:1007A000CCFCCCCC0269797CF8D8D8DCF8D8D8DC81
:1007B000006B7B78CCC0C0C0C0C0CC783060026A0F
:1007C0007A603000FCC0C0F0C0C0FC026A7A183009
:1007D00000FCC0C0F0C0C0FC026A7A386C00FCC0EB
:1007E000C0F0C0C0FC026A7ACCCC00FCC0C0F0C033
:1007F000C0FC026A7A603000FC3030303030FC02DD
:100800006A7A183000FC3030303030FC026A7A38B6
:100810006C00FC3030303030FC026A7ACCCC00FC0A
:100820003030303030FC026979F86C6C6CEC6C6CF8
:100830006CF8026A7A345800CCCCECFCDCCCCC02EC
:100840006A7A60300078CCCCCCCCCC78026A7A184A
:10085000300078CCCCCCCCCC78026A7A386C00787A
:10086000CCCCCCCCCC78026A7A34580078CCCCCCC6
:10087000CCCC78026A7ACCCC0078CCCCCCCCCC78FE
:10088000036575CC783078CC016A7A0478DCDCDCDE
:10089000ECECEC7880026A7A603000CCCCCCCCCC2A
:1008A000CC78026A7A183000CCCCCCCCCCCC780294
:1008B0006A7A386C00CCCCCCCCCCCC78026A7ACCBE
:1008C000CC00CCCCCCCCCCCC78026A7A183000CC22
:1008D000487830303030026979C0F8CCCCCCF8C0E0
:1008E000C0C002697978CCCCD8D8CCCCCCD802693D
:1008F00079301800780C7CCCDC7C026979183000E7
:10090000780C7CCCDC7C026979386C00780C7CCC6F
:10091000DC7C026979345800780C7CCCDC7C026980
:10092000796C6C00780C7CCCDC7C026A7A382838D4
:1009300000780C7CCCDC7C02667678347CB0B468C1
:1009400000687878CCC0C0CC783060026979301803
:100950000078CCFCC0CC7802697918300078CCFCE7
:10096000C0CC78026979386C0078CCFCC0CC7802B5
:1009700069796C6C0078CCFCC0CC78124979C06085
:1009800000E060606060F0124979306000E0606013
:100990006060F002597970D80070303030307812D1
:1009A0005979D8D800E060606060F0026A7A6830F7
:1009B000780C7CCCCCCCCC78026979345800F8EC3B
:1009C000CCCCCCCC02697960300078CCCCCCCC7863
:1009D00002697918300078CCCCCCCC7802697938AF
:1009E0006C0078CCCCCCCC7802697934580078CCC7
:1009F000CCCCCC780269796C6C0078CCCCCCCC783F
:100A0000036777303000FC0030300169790478CC1E
:100A1000DCCCECCC7880026979603000CCCCCCCCDA
:100A2000DC7C026979183000CCCCCCCCDC7C02694F
:100A300079386C00CCCCCCCCDC7C0269796C6C0055
:100A4000CCCCCCCCDC7C006B7B183000CCCCCCDCB0
:100A50007C0CCC78006A7AC0C0D8ECCCCCECD8C086
:100A6000C0006B7B6C6C00CCCCCCDC6C0CCC78000C
:100A70001F1AFEFB0E0374075F207FFC10FB0EFCA9
:100A8000000000060000030E0E080300E0E0E0E0B6
:100A9000E0E0E0E0E0E00000E0E00806060A01082F
:100AA000E767676767670C0E1C0E0100066006604B
:100AB0000C603FF03FF018C019801980FFE0FFE0A4
:100AC00033003300630066000A11220C01FE0400AB
:100AD0001F007F807780E5C0E400FC007E001F805F
:100AE00007C005C0E5C0E5C07F803F0004000400EA
:100AF000120E2A1401003C04007E0C00C31800C32F
:100B00001000C33000E760007E670018CD800098B9
:100B1000C00198C00318C00318C0060F800C07005E
:100B20000E0E1C1001001F007F8071C071C0738009
:100B30003F001E007E38F730E3B0E1F0E0E07FF0E8
:100B40001FBC030606080308E0C0C0C0C0C00411F3
:100B5000110802FD30707060E0E0E0E0E0E0E0E00D
:100B6000E0607070300411110802FDC0C0E0E06068
:100B70006070707070706060E0E0C0C00807070CC3
:100B80000207663C18FF183C660C0C18140400029F
:100B9000000200020002000200FFF0FFF00200026B
:100BA000000200020002000405050601FE707060EC
:100BB000E0C0050303070104F8F8F8030303060285
:100BC00000E0E0E0060F0F0901FF0C0C0C0C1818F8
:100BD0001830303060606060C00A0E1C0B01001ECF
:100BE000007F006180E1C0E1C0E1C0E1C0E1C0E19F
:100BF000C0E1C0E1C061807F801E00060E0E0B02C6
:100C0000001C7CFCDC1C1C1C1C1C1C1C1C1C1C0A52
:100C10000E1C0B01001F007F8061C0E1C001C001FC
:100C2000C0038007800F001E0038007000FFC0FF67
:100C3000C00A0E1C0B01003E007F00E3800380030E
:100C4000801F001F00038001C001C0E1C0F3807F4E
:100C5000003E000B0E1C0B010007800F800F801B55
:100C6000803B80338073806380E380FFE0FFE0039C
:100C700080038003800A0E1C0B0100FF80FF80E0D0
:100C800000E000E000FF00FF80E18001C001C0E162
:100C9000C0E3807F003E000A0E1C0B01001E003FD7
:100CA0008061806000E000DF00FF80E180E1C0E162
:100CB000C0E1C061807F801E000A0E1C0B0100FF96
:100CC000C0FFC001C0038003800780070007000E3B
:100CD000000E001C001C003C0038000A0E1C0B011A
:100CE000003F007F80E1C0E1C0E1807F003F0073F2
:100CF00080E1C0E1C0E1C0E1C07F803F000A0E1C7E
:100D00000B01001E007F00E180E180E1C0E1C0F343
:100D1000C07FC019C00180E18063807F003E000376
:100D20000A0A070300E0E0E000000000E0E0E00461
:100D30000C0C0601FE707070000000007060E0C0D6
:100D4000C00C0A14140401001000E003801C00E031
:100D500000C0003800070001C000300C050A140470
:100D600003FFF0FFF00000FFF0FFF00C0A14140482
:100D700001800070001C0003800070003001C00E74
:100D8000003800C000090E1C0B01003E007F00C3AC
:100D90008043800380070006000C0018001800182C
:100DA000000000180018001312361501FC01F800AD
:100DB0000FFE001E07803803C071FDC073FCE0E722
:100DC0001CE0E71CE0E71CE0E71CE0E71CE0E73C78
:100DD000C073FFC071E7803800001E04000FFC00E4
:100DE00003FC000E0E1C0E00000780078007C00FDA
:100DF000C00EC01CE01CE01C6038703FF03FF87073
:100E0000387038E01C0B0E1C0D0100FF00FF80E164
:100E1000C0E1C0E1C0E380FF00FF80E0C0E0E0E0AF
:100E2000E0E0E0FFC0FF000D0E1C0F01000F803F4F
:100E3000E070706070E000E000E000E000E000E0E2
:100E400078607070F03FE00F800C0E1C0E0100FF08
:100E500000FFC0E1E0E0E0E070E070E070E070E032
:100E600070E070E0E0E1E0FFC0FF000A0E1C0C0142
:100E700000FFC0FFC0E000E000E000E000FF80FFF6
:100E800080E000E000E000E000FFC0FFC0090E1CB1
:100E90000B0100FF80FF80E000E000E000E000FFC9
:100EA00080FF80E000E000E000E000E000E0000DF6
:100EB0000E1C0F01000FC01FF038387038E000E042
:100EC00000E1F8E1F8E038E038703878383FF80FA2
:100ED000F00C0E1C0E0100E070E070E070E070E0BD
:100EE00070E070FFF0FFF0E070E070E070E070E044
:100EF00070E070030E0E050100E0E0E0E0E0E0E0ED
:100F0000E0E0E0E0E0E0E00A0E1C0C010001C001BE
:100F1000C001C001C001C001C001C001C001C0E1E9
:100F2000C0E1C0F3C07F803E000B0E1C0D0100E14C
:100F3000E0E3C0E380E700EE00FC00FC00FE00EE12
:100F400000E700E780E3C0E1C0E0E00A0E1C0B010F
:100F500000E000E000E000E000E000E000E000E091
:100F600000E000E000E000E000FFC0FFC0100E1C49
:100F7000120100F81FF81FFC3FFC3FFC37EC77EE36
:100F800077EE67E6E7E7E7E7C7E3C7E3C7E3870D81
:100F90000E1C0F0100F038F838F838FC38EE38EE47
:100FA00038E738E738E3B8E3B8E1F8E1F8E0F8E02B
:100FB000F80E0E1C1001000FC03FF070706038E09A
:100FC00018E01CE01CE01CE01CE018603870703F6A
:100FD000F00FC00B0E1C0D0100FF00FFC0E1C0E0D0
:100FE000E0E0E0E0E0E1C0FFC0FF00E000E000E0A2
:100FF00000E000E0000F0E1C1101000FC03FE07088
:10100000706038E018E01CE01CE01CE01CE0186098
:101010003870783FFE0FFE0B0E1C0D0100FF80FFA5
:10102000C0E0E0E0E0E0E0E0E0FF80FFC0E1C0E041
:10103000E0E0E0E0E0E0E0E0600C0E1C0E01001FEC
:10104000803FC060E0E0E0E000FC007F801FE00344
:10105000E00070E070E0607FC01F800C0E1C0E018D
:1010600000FFF0FFF00E000E000E000E000E000E4E
:10107000000E000E000E000E000E000E000C0E1CE6
:101080000E0100E070E070E070E070E070E070E091
:1010900070E070E070E070E07070E03FC01F800EA4
:1010A0000E1C0F0000F01C701C703C3838383838AB
:1010B000701C701C701EE00EE00FC007C007C00758
:1010C00080140E2A140000F0F0F070F0E070F0E0F0
:1010D00071F8E071F8E03999C03999C03B9DC03B87
:1010E0009DC01B0D801F0F801F0F801F0F800E07DC
:1010F000000C0E1C0E0100E07070E078E039C01F9B
:10110000801F000F000F001F803BC039C070E0E05F
:10111000F0E0700C0E1C0D0000F07070F038E0383C
:10112000E01DC01DC00F800F00070007000700076B
:1011300000070007000B0E1C0D01007FE07FE0019F
:10114000E003C0038007800F001E001E003C0078F3
:1011500000F800FFE0FFE00512120802FCF8F8E0DA
:10116000E0E0E0E0E0E0E0E0E0E0E0E0E0F8F80629
:101170000F0F0901FFC0C0606060303030101818D8
:10118000180C0C0C0512120802FCF8F83838383824
:1011900038383838383838383838F8F80A0C1814ED
:1011A00005000C000C000C0012001200330021009E
:1011B000210040804080C0C080400A02040A00FD37
:1011C000FFC0FFC005040405FF0CE0703018090AD9
:1011D000140B01003E007F80E3801F807F80E3804E
:1011E000E380E380FF8039800A0E1C0C0100E000E0
:1011F000E000E000E000EF00FF80E1C0E1C0E1C0FE
:10120000E1C0E1C0E180FF80EF00090A140B01009A
:101210003E007F00E380E380E000E000E380E380C5
:101220007F003E000A0E1C0C010001C001C001C07D
:1012300001C03DC07FC0E1C0E1C0E1C0E1C0E1C08C
:10124000E1C07FC03DC0090A140B01001E007F00F1
:10125000E380E380FF80FF80E000E3807F803E004A
:10126000070E0E0801001E3E3838FEFE38383838AA
:10127000383838380A0E1C0C01FC3DC07FC071C0E4
:10128000E1C0E1C0E1C0E1C0E1C07FC03DC001C03C
:1012900061C07F803F00090E1C0B0100E000E000F0
:1012A000E000E000EF00FF80E380E380E380E38084
:1012B000E380E380E380E380030E0E050100E0E0BD
:1012C000E000E0E0E0E0E0E0E0E0E0E0041212074F
:1012D00002FC707070007070707070707070707060
:1012E0007070F0E0090E1C0B0100E000E000E0006F
:1012F000E000E780E700EE00FC00FC00FC00EE00F0
:10130000E700E700E380030E0E050100E0E0E0E007
:10131000E0E0E0E0E0E0E0E0E0E00F0A14120100CD
:10132000EF3CFFFEE3CEE386E386E386E386E386D7
:10133000E386E386090A140B0100EF00FF80E380D7
:10134000E380E380E380E380E380E380E3800A0AD4
:10135000140C01001E007F806180E1C0E1C0E1C08B
:10136000E1C061807F801E000A0E1C0C01FCEF00B2
:10137000FF80E180E1C0E1C0E1C0E1C0E1C0FF80E9
:10138000EF00E000E000E000E0000A0E1C0C01FCB1
:101390003DC07FC0E1C0E1C0E1C0E1C0E1C0E1C04B
:1013A0007FC03DC001C001C001C001C0060A0A08DB
:1013B0000100ECFCF0E0E0E0E0E0E0E0090A140B02
:1013C00001003E00FF00E380E0007E001F0003807C
:1013D000E380FF003E00070D0D090100083838FECC
:1013E000FE3838383838383E1E090A140B0100E33D
:1013F00080E380E380E380E380E380E380E380FFB9
:10140000807B800B0A140B0000E0E071C071C031DA
:10141000803B803B801B001F001F000E00110A1E36
:10142000110000E1C38061E30073E70073670033DC
:1014300077003F76003F3E003E3E001E3C001E1CF3
:1014400000090A140B0100E380730077003E001CC2
:10145000003E003E007700E380E3800B0E1C0B0093
:10146000FCE0E071C071C039803B803B801F001FF1
:10147000000F000E000E000E001C001C00080A0ADF
:101480000A0100FFFF070E1C3870E0FFFF0713136F
:101490000A02FB0E3E383838383830F0C0F0703869
:1014A000383838383E0E0115150703FB80808080E0
:1014B000808080808080808080808080808080802C
:1014C000800713130A02FBE0F03838383838381C2C
:1014D000061C383838383838F0E00B03060B0004A7
:1014E00030607FC0C780FF01060D00FE0901630266
:1014F000D320FFFE0BFE0AFE0D0060222969C0C04A
:10150000C0C0C0C0C000C0085363D8D8D803676744
:101510007878FC78FC78780367673078F0783C78E6
:10152000300269696CFC7818306078FCD802676713
:1015300060F0F060FCD87C282363C0C0C0114B6B06
:10154000306060C0C0C0C0C0606030114B6BC06014
:101550006030303030306060C0046565CC78FC7835
:10156000CC0465653030FC30301143637060C006D8
:101570006161FC11436360F0600269690C0C18182A
:10158000306060C0C00269693078CCCCCCCCCC78FB
:10159000300269693070F03030303030FC026969F7
:1015A00078CCCC0C183060C0FC026969FC0C183097
:1015B000780C0CCC780269691818387858D8FC185F
:1015C00018026969FCC0C0F8EC0C0CCC780269699F
:1015D0003860C0C0F8ECCCCC78026969FC0C1818F3
:1015E000303060606002696978CCCCCC78CCCCCCEF
:1015F0007802696978CCCCDC7C0C0C1870124868D5
:1016000060F060000060F06011486860F060000009
:101610007060C00269690C183060C06030180C043A
:101620006464FC0000FC026969C06030180C18306A
:1016300060C002696978CCCC0C1830300030026987
:101640006978CCCCDCFCFCF8C07C0269693078CCD1
:10165000CCCCFCCCCCCC026969F86C6C6C786C6C32
:101660006CF802696978CCC0C0C0C0C0CC7802698F
:1016700069F86C6C6C6C6C6C6CF8026969FCC0C0CD
:10168000C0F8C0C0C0FC026969FCC0C0C0F8C0C0DE
:10169000C0C002696978CCC0C0C0DCCCCC7802691B
:1016A00069CCCCCCCCFCCCCCCCCC124969F0606001
:1016B0006060606060F00269693C0C0C0C0C0C0C02
:1016C000CC78026969CCCCD8F0E0F0D8CCCC0269F7
:1016D00069C0C0C0C0C0C0C0C0FC026969CCCCFC3D
:1016E000FCFCCCCCCCCC026969CCECECFCFCDCDCAA
:1016F000CCCC02696978CCCCCCCCCCCCCC7802698F
:1017000069F8CCCCCCF8C0C0C0C0016A6A78CCCC37
:10171000CCCCCCCCFC780C026969F8CCCCCCF8F001
:10172000D8CCCC02696978CCC0C0780C0CCC7802DB
:101730006969FC3030303030303030026969CCCCEF
:10174000CCCCCCCCCCCC78026969CCCCCCCC787865
:10175000783030026969CCCCCCCCFCFCFCFCCC02EF
:101760006969CCCC7878307878CCCC026969CCCCFB
:1017700078783030303030026969FC0C18183060ED
:1017800060C0FC114B6BF0C0C0C0C0C0C0C0C0C0C6
:10179000F0026969C0C060603018180C0C114B6B06
:1017A000F0303030303030303030F0086363307833
:1017B000CC016161FC1A3262C060026666780C7C02
:1017C000CCDC6C026969C0C0C0D8ECCCCCECD802CF
:1017D000666678CCC0C0CC780269690C0C0C6CDCF5
:1017E000CCCCDC6C02666678CCFCC0C0780269693F
:1017F000386C6060F8606060600068687CD8D870A1
:10180000C078CC78026969C0C0C0D8ECCCCCCCCC54
:10181000124969606000E060606060F0005B6B1816
:1018200018003818181818D8D870026969C0C0C0D4
:10183000D8F0E0F0D8CC124969E060606060606088
:1018400060F0026666F8FCFCFCFCCC026666D8EC34
:10185000CCCCCCCC02666678CCCCCCCC780068689A
:10186000D8ECCCECD8C0C0C00068686CDCCCDC6CB8
:101870000C0C0C026666D8ECC0C0C0C0026666786C
:10188000CC7018CC780268686060F86060606C3872
:10189000026666CCCCCCCCDC6C026666CCCCCC7858
:1018A0007830026666CCCCFCFCFC48026666CC78DC
:1018B000303078CC006868CCCCCCDC6C0CCC7802B6
:1018C0006666FC183060C0FC015B6B38606060309D
:1018D000E03060606038222969C0C0C0C0C0C0C0AC
:1018E000C0C0015B6BE0303030603860303030E0D9
:1018F00008536368F890FFFFFFFFFFFFFFFFFFFF44
:10190000FFFFFFFFFFFFFFFFFFFFFFFFFFFFFFFFE7
:10191000FFFFFFFFFFFFFF0D0060222A6AC0C0002B
:10192000C0C0C0C0C0C0C00368681078D4D0D0D4D4
:101930007810026969386C6060F8606064F803666A
:1019400066CCFC4848FCCC026969CCCC7878FC3089
:10195000FC3030222A6AC0C0C0C00000C0C0C0C075
:10196000026A6A78CCC078CCCC780CCC78096262F8
:10197000CCCC02696978CCB4ECE4ECB4CC780467E4
:1019800067F80CFC8CFC00FC0367673468D0A0D0BF
:101990006834046464FCFC0404164161F002696963
:1019A00078CCBCACBCB4ACCC78095262F8F8076413
:1019B0006478CCCC780269693030FCFC303000FCB3
:1019C000FC064666E0B03060C0F0064666E0B060F7
:1019D00030B0E01A326260C0006868CCCCCCCCCCAD
:1019E000FC80800269697CFCF4F4F474343434269D
:1019F0002262C0C010326260C006466660E060606D
:101A000060F005576770F888F87000F8036767B0F2
:101A1000582C142C58B0026A6A60E0606064FC1CA8
:101A2000343C0C026A6A60E0606078EC0C18303C70
:101A3000026A6AE0B06030B4EC1C343C0C026A6AA2
:101A4000303000303060C0CCCC78026A6A60300040
:101A50003078CCCCFCCCCC026A6A1830003078CC20
:101A6000CCFCCCCC026A6A386C003078CCCCFCCC94
:101A7000CC026A6A3458003078CCCCFCCCCC026AF8
:101A80006ACCCC003078CCCCFCCCCC026A6A304832
:101A9000783078CCCCFCCCCC0269697CB0B0B0B8E2
:101AA000F0F0B0BC006B6B78CCC0C0C0C0C0CC78CC
:101AB0003060026A6A603000FCC0C0F8C0C0FC023E
:101AC0006A6A183000FCC0C0F8C0C0FC026A6A38FC
:101AD0006C00FCC0C0F8C0C0FC026A6ACCCC00FC40
:101AE000C0C0F8C0C0FC124A6AC06000F06060600C
:101AF0006060F0124A6A306000F06060606060F020
:101B0000025A6A70D80078303030303078026A6A11
:101B1000CCCC0078303030303078026969F86C6CA9
:101B20006CEC6C6C6CF8026A6A345800CCECECFC1F
:101B3000DCDCCC026A6A60300078CCCCCCCCCC78CF
:101B4000026A6A18300078CCCCCCCCCC78026A6AB5
:101B5000386C0078CCCCCCCCCC78026A6A34580093
:101B600078CCCCCCCCCC78026A6ACCCC0078CCCC0B
:101B7000CCCCCC78036565CC783078CC016969042D
:101B800078DCDCCCECEC7880026A6A603000CCCC8B
:101B9000CCCCCCCC78026A6A183000CCCCCCCCCC83
:101BA000CC78026A6A386C00CCCCCCCCCCCC780235
:101BB0006A6A6C6C00CCCCCCCCCCCC78026A6A184B
:101BC0003000CC487830303030026969C0F8CCCC75
:101BD000CCF8C0C0C001696978CCCCF8CCCCCCF8CA
:101BE00080026969603000780C7CCCDC6C02696929
:101BF000183000780C7CCCDC6C026969386C007899
:101C00000C7CCCDC6C026969345800780C7CCCDC30
:101C10006C0269696C6C00780C7CCCDC6C026A6AC2
:101C200038283800780C7CCCDC6C02666678347816
:101C3000B0B46800686878CCC0C0CC783060026905
:101C40006960300078CCFCC0C07802696918300047
:101C500078CCFCC0C078026969386C0078CCFCC0D4
:101C6000C0780269696C6C0078CCFCC0C0781249FD
:101C700069C06000E060606060F012496930600037
:101C8000E060606060F002596970D80070303030F8
:101C90003078025969D8D800703030303078026A14
:101CA0006AD870F09878CCCCCCCC7802696934587A
:101CB00000D8ECCCCCCCCC02696960300078CCCCBC
:101CC000CCCC7802696918300078CCCCCCCC7802C6
:101CD0006969386C0078CCCCCCCC7802696934580E
:101CE0000078CCCCCCCC78026969CCCC0078CCCC58
:101CF000CCCC78036767303000FC00303001696974
:101D00000478CCDCCCECCC7880026969603000CC03
:101D1000CCCCCCDC6C026969183000CCCCCCCCDCEF
:101D20006C026969386C00CCCCCCCCDC6C02696983
:101D3000CCCC00CCCCCCCCDC6C006B6B183000CCA9
:101D4000CCCCDC6C0CCC78006A6AC0C0D8ECCCEC93
:101D5000D8C0C0C0006B6BCCCC00CCCCCCDC6C0C45
:101D6000CC7801080D00FE0A017F030C20FFFE0B5A
:101D7000FE0AFE0D0080322A8AC0C0C0C0C0C0C0AA
:101D800000C0C0185484D8D8D8D80279896C6CFEA9
:101D9000FE6CFEFE6C6C017B8B107CD6D0F07C1E42
:101DA00016D67C10027A8AE6A6EC181830306ECA75
:101DB000CE02778778CCCC78CECC7E382484C0C055
:101DC000C0C0115B8B18306060C0C0C0606030184C
:101DD000115B8BC0603030181818303060C003774A
:101DE000871010FE38386C441466863030FCFC30A6
:101DF00030214585F0707060C0166181FC224383FC
:101E000060F060027A8A0206060C183060C0C0805A
:101E1000027A8A386CC6C6C6C6C6C66C38126A8ACA
:101E20003070F0303030303030FC027A8A7CC6C6F8
:101E3000060C183060C0FE027A8AFE060C183C06BA
:101E40000606C67C027A8A0C1C3C6CCCCCFE0C0CC0
:101E50000C027A8AFEC0C0FCE6060606C67C027A40
:101E60008A3C60C0C0FCE6C6C6E67C027A8AFE06F2
:101E7000060C181830303030027A8A7CC6C6C67C10
:101E8000C6C6C6C67C027A8A7CCEC6C6CE7E06068A
:101E90000C7822488860F060000060F06021498979
:101EA00060F06000F0707060C01269890C183060DA
:101EB000C06030180C146484FC0000FC126989C0F6
:101EC0006030180C183060C0027A8A7CC6C6060CD6
:101ED00018180018180279897CFECEDED2D2DEE016
:101EE0007E027A8A387CC6C6C6FEC6C6C6C6027AD6
:101EF0008AFC6666667C66666666FC027A8A7CE6B2
:101F0000C6C0C0C0C0C6E67C027A8AFC6666666649
:101F100066666666FC027A8AFEC0C0C0F8C0C0C0B1
:101F2000C0FE027A8AFEC0C0C0F8C0C0C0C0C002F5
:101F30007A8A7CC6C6C0C0C0CEC6C67C027A8AC6B3
:101F4000C6C6C6FEC6C6C6C6C6224A8AF06060605D
:101F50006060606060F0027A8A0E06060606060679
:101F6000C6C67C027A8AC6C6CCD8F0F0D8CCC6C623
:101F7000027A8AC0C0C0C0C0C0C0C0C2FE027A8A95
:101F8000C6C6EEFED6C6C6C6C6C6027A8AC6C6E6AD
:101F9000E6F6DECECEC6C6027A8A7CC6C6C6C6C6FF
:101FA000C6C6C67C027A8AFCC6C6C6C6FCC0C0C00D
:101FB000C0017B8B7CC6C6C6C6C6C6C6DE7C060212
:101FC0007A8AFCC6C6C6FCF8CCCCC6C6027A8A7C25
:101FD000C6C6C07C0606C6C67C126A8AFC30303093
:101FE000303030303030027A8AC6C6C6C6C6C6C661
:101FF000C6C67C027A8AC6C6C6C6446C6C3838101F
:10200000027A8AC6C6C6C6C6C6D6D6FE6C027A8A0A
:10201000C6C66C6C38386C6CC6C6126A8ACCCCCC1E
:1020200078783030303030027A8AFE06060C18306C
:1020300060C0C0FE115B8BF8C0C0C0C0C0C0C0C0D3
:10204000C0F8027A8A80C0C06030180C06060211FF
:102050005B8BF8181818181818181818F8087484D2
:1020600010386CC6017181FE294383C0603002774D
:10207000877C067EC6C6CE76027A8AC0C0C0DCE601
:10208000C6C6C6E6DC0277877CE6C0C0C0E67C0236
:102090007A8A06060676CEC6C6C6CE760277877CD4
:1020A000C6C6FEC0C67C027A8A3C66606060FC6080
:1020B0006060600079897ECCCCCC78F07CC67C02F4
:1020C0007A8AC0C0C0DCE6C6C6C6C6C622498960D8
:1020D0006000E060606060F0007B8B0606000E062A
:1020E000060606C6C67C027A8AC0C0C0CCD8F0F00C
:1020F000D8CCC6224A8AE06060606060606060F0B0
:102100000277876CFED6D6C6C6C6027787DCE6C6DF
:10211000C6C6C6C60277877CC6C6C6C6C67C007958
:1021200089DCE6C6C6C6E6DCC0C000798976CEC6C4
:10213000C6C6CE760606027787DCE6C0C0C0C0C041
:102140000277877CC660380CC67C027A8A60606041
:1021500060FC606060663C027787C6C6C6C6C6CEB5
:1021600076027787C6C6C6C66C6C38027787C6C645
:10217000C6D6D6FE6C027787C6C66C386CC6C6005B
:102180007989C6C6C6C6CE7606C67C027787FE0C9F
:10219000183060C0FE116B8B3C60606030E03060D6
:1021A00060603C322A8AC0C0C0C0C0C0C0C0C0C0CD
:1021B000116B8BF0181818301C30181818F00873B1
:1021C0008372FE9CFFFFFFFFFFFFFFFFFFFFFFFF8C
:1021D000FFFFFFFFFFFFFFFFFFFFFFFFFFFFFFFF0F
:1021E000FFFFFFFFFF0D0080322A8AC0C000C0C081
:1021F000C0C0C0C0C0036888107CD4D0D0D47C10CC
:10220000017B8B3C666060FC606060F0BEE0037741
:1022100087C6FE6C446CFEC6126A8ACCCCCC787839
:10222000FC30FC3030322A8AC0C0C0C00000C0C0C0
:10223000C0C0126A8A78CCC078CCCC780CCC781A22
:102240005282D8D80379897CC6BAEAE2EABAC67C57
:10225000155787F018F898F800F8037787366CD888
:10226000B0D86C36036585FCFC040404165181F873
:102270000379897CC6BAAABAB2AAC67C1C6181FC61
:1022800018648478CCCC781367873030FC30300009
:10229000FC164686E0B03060C0F0164686E0B060BE
:1022A00030B0E02943833060C0007989C6C6C6C615
:1022B000C6EEFCC0C0017B8B3E7ACACACA7A3A0A13
:1022C0000A0A0E362282C0C0104383309060164640
:1022D0008660E0606060F015578770F888F87000DD
:1022E000F8037787D86C361A366CD8027A8A60E0A1
:1022F000606062F60E1A1E06027A8A60E060607CF8
:10230000F6060C181E027A8AE0B06030B2E60E1AA9
:102310001E06126A8A303000303060C0CCCC7802A1
:102320007A8A301800387CC6C6FEC6C6027A8A1879
:102330003000387CC6C6FEC6C6027A8A386C0038C1
:102340007CC6C6FEC6C6027A8A345800387CC6C629
:10235000FEC6C6027A8A6C6C00387CC6C6FEC6C64B
:10236000027B8B18241800387CC6C6FEC6C6027ACB
:102370008A7EF8D8D8D8FCD8D8D8DE007C8C7CE609
:10238000C0C0C0C0C0E67C184830027A8A3018004D
:10239000FEC0C0F8C0C0FE027A8A183000FEC0C07D
:1023A000F8C0C0FE027A8A386C00FEC0C0F8C0C017
:1023B000FE027A8A6C6C00FEC0C0F8C0C0FE224AE1
:1023C0008AC06000F06060606060F0224A8A30601D
:1023D00000F06060606060F0225A8A70D800F0609F
:1023E00060606060F0225A8AD8D800F06060606057
:1023F00060F0027888FC6666F6666666FC027A8A99
:10240000345800C6E6F6D6DECEC6027B8B30180006
:102410007CC6C6C6C6C6C67C027B8B1830007CC68E
:10242000C6C6C6C6C67C027B8B386C007CC6C6C6D8
:10243000C6C6C67C027B8B3458007CC6C6C6C6C6E0
:10244000C67C027B8B6C6C007CC6C6C6C6C6C67CCE
:10245000027787C6C67C387CC6C6017A8A027CCEE3
:10246000D6D6D6D6E67C80027A8A301800C6C6C692
:10247000C6C6C67C027A8A183000C6C6C6C6C6C69C
:102480007C027A8A386C00C6C6C6C6C6C67C027A8A
:102490008A6C6C00C6C6C6C6C6C67C126A8A18306C
:1024A00000CC487830303030027989C0FCC6C6C6CE
:1024B000FCC0C0C0027A8A3C66666CEC6C666666DC
:1024C0006C027A8A3018007C067EC6C6CE76027A06
:1024D0008A1830007C067EC6C6CE76027A8A386CB0
:1024E000007C067EC6C6CE76027A8A3458007C0608
:1024F0007EC6C6CE76027A8A6C6C007C067EC6C624
:10250000CE76027B8B182418007C067EC6C6CE765B
:102510000277876CDA1A7CD8DA6C007A8A7CE6C09B
:10252000C0C0E67C184830027A8A3018007CC6C6E3
:10253000FEC0C67C027A8A1830007CC6C6FEC0C6C1
:102540007C027A8A386C007CC6C6FEC0C67C027AE1
:102550008A6C6C007CC6C6FEC0C67C224A8AC060FB
:1025600000E06060606060F0224A8A60C000E06065
:1025700060606060F0125A8A70D80070303030307D
:102580003078125A8AD8D800703030303030780223
:102590007A8A6C38780C7EC6C6C6C67C027A8A34C3
:1025A0005800DCE6C6C6C6C6C6027A8A3018007C69
:1025B000C6C6C6C6C67C027A8A1830007CC6C6C6A5
:1025C000C6C67C027A8A386C007CC6C6C6C6C67C83
:1025D000027A8A3458007CC6C6C6C6C67C027A8A8D
:1025E0006C6C007CC6C6C6C6C67C136787303000DC
:1025F000FC003030017989027CCED6D6D6E67C80CC
:10260000027A8A301800C6C6C6C6C6CE76027A8A54
:10261000183000C6C6C6C6C6CE76027A8A386C00A6
:10262000C6C6C6C6C6CE76027A8A6C6C00C6C6C658
:10263000C6C6CE76007C8C183000C6C6C6C6CE761E
:1026400006C67C007B8BC0C0DCE6C6C6C6E6DCC026
:10265000C0007C8C6C6C00C6C6C6C6CE7606C67C36
:10266000D922EA2A11241FBECFEFDAE0DEBFCDBFA8
:1026700011E0A0E0B1E0E0ECFCE502C005900D92B5
:10268000A43FB107D9F726E0A4EFB1E001C01D9245
:10269000A238B207E1F713E1C1E3D3E104C0219707
:1026A000FE010E945B2CC033D107C9F70E941A2497
:1026B0000C94532E0C940000089580E00895FC01C2
:1026C00080916405882311F13FB7F89482E08093EC
:1026D000E9002091F200822F90E01816190614F4F8
:1026E00081E090E0882339F0289A44E6409363051E
:1026F0004091F1004083222339F02091F200211112
:1027000003C02BE62093E8003FBF08958FEF9FEFB3
:10271000089520919E0530919F052817390799F15A
:1027200090939F0580939E05009739F12091B10504
:10273000FC01211129C03596E491E093B2050C9675
:10274000FC0184918093B3058091B205082E000CA2
:10275000990B2091B305821B910927FD9395209138
:10276000B405203441F0829FC001112426E09695E3
:1027700087952A95E1F78093B5058DE593E19093D0
:10278000B0058093AF050895213031F43F96E49170
:10279000E093B2054096D4CF3D96E491E093B20524
:1027A0000E96CECF2FB7F89483E08093E9009091F6
:1027B000E800892F807295FF04C09091F20080E4B8
:1027C000891B2FBF08958091590581110DC082E0AA
:1027D0008093550584E08093560510925805109219
:1027E000570581E08093590585E595E0089540916E
:1027F00080025091810220917E0230917F02421727
:102800005307B4F49091E8009570E1F39091E800DB
:1028100092FD19C08093F100809180029091810215
:1028200001968F739927892B19F48EEF8093E80016
:102830008091800290918102019690938102809311
:10284000800281E0089580E00895EF92FF920F9357
:102850001F93CF93DF93F82E192FE62E042F81E0DC
:10286000860F880F0E94F71383E00E94F713CF2D85
:10287000D12FEC0EFD2EF11CCE15DF05B9F007FFB0
:1028800013C0FE0184910E94F713182F80E00E946C
:10289000F713812321968111EFCFDF91CF911F9103
:1028A0000F91FF90EF9008958881EDCF81E0F5CFF3
:1028B000DF92EF92FF920F931F93CF93DF93D82E67
:1028C0008A01EB017B01E40EF51ECE15DF0559F000
:1028D000D7FE12C0FE0184910E94F7132196811148
:1028E000F4CF0FEF1FEFC801DF91CF911F910F9130
:1028F000FF90EF90DF9008958881EECF0F931F93A4
:10290000CF93DF931F92CDB7DEB782E0898342E495
:1029100050E069E271E080E80E9458140E94E313DD
:10292000DC0112960D911C910115110589F0D80159
:10293000ED91FC910280F381E02DBE016F5F7F4F2E
:10294000C801099597FD04C0F80100851185ECCFF9
:1029500089810F90DF91CF911F910F910895615060
:1029600030F02091F100FC0120830196F8CF289AE5
:1029700084E6809363050895AF92BF92CF92DF9271
:10298000EF92FF920F931F93CF93DF936C017B0124
:102990008B01040F151FEB015E01AE18BF08C017B5
:1029A000D10759F06991D601ED91FC910190F08128
:1029B000E02DC6010995892B79F7C501DF91CF91EB
:1029C0001F910F91FF90EF90DF90CF90BF90AF904D
:1029D0000895CF93DF931F92CDB7DEB76983DC01F3
:1029E000ED91FC910280F381E02D41E050E0BE01C9
:1029F0006F5F7F4F09950F90DF91CF91089583E02E
:102A00008093E9008091F200882319F08AE3809393
:102A1000E80008950E94D21390E00895CF93DF93C9
:102A20001F92CDB7DEB7FC018485958597FD08C060
:102A30002FEF3FEF358724870F90DF91CF910895D7
:102A4000CE0101960E945F13019719F4898190E0ED
:102A5000F3CF8FEF9FEFF0CF0F931F93CF93DF93C1
:102A60001F92CDB7DEB78C01FC018485958597FF59
:102A70000BC0CE0101960E945F13019771F489810A
:102A800090E0F80195878487F801848595850F90FB
:102A9000DF91CF911F910F9108958FEF9FEFF1CFAD
:102AA000FC018485958597FD0BC09FB7F89482E063
:102AB0008093E9008091F2009FBF90E00196089515
:102AC0009FB7F89482E08093E9008091F2009FBF65
:102AD00090E0089581508F3008F047C0E82FF0E073
:102AE000EC58FA4E0C945B2C9115951583158915AD
:102AF0008D15B515B515B51598159E15A215A61504
:102B0000AC15B515B015809180008F77809380004B
:102B10000895809180008F7DF9CF80918000877F1C
:102B2000F5CF84B58F7784BD089584B58F7DFBCFB5
:102B3000809190008F77809390000895809190000D
:102B40008F7DF9CF80919000877FF5CF8091C00075
:102B50008F778093C00008958091C0008F7DF9CF5A
:102B60008091C200877F8093C2000895CF93DF9346
:102B7000282F30E0F901E65FFE4F8491F901E75517
:102B8000FE4FD491F901E853FE4FC491CC23A1F03C
:102B900081110E946A15EC2FF0E0EE0FFF1FE45048
:102BA000FF4FA591B491EC91ED2381E090E009F401
:102BB00080E0DF91CF91089580E090E0FACF1F93FD
:102BC000CF93DF93282F30E0F901E65FFE4F849129
:102BD000F901E755FE4FD491F901E853FE4FC49136
:102BE000CC23A9F0162F81110E946A15EC2FF0E07A
:102BF000EE0FFF1FE251FF4FA591B4918FB7F894EC
:102C0000EC91111108C0D095DE23DC938FBFDF91CA
:102C1000CF911F910895DE2BF8CF682F8091280661
:102C20000E94DF15809144069091450682309105FF
:102C300038F0880F991F880F991F05970197F1F7B2
:102C4000089581E00C940D16CF93DF9390E0FC0182
:102C5000E755FE4F249188539E4FFC0184918823B1
:102C6000D1F090E0880F991FFC01E556FE4FA59129
:102C7000B491FC01E251FF4FC591D49161110EC096
:102C80009FB7F8948C91E22FE0958E238C93288146
:102C9000E223E8839FBFDF91CF9108958FB7F89427
:102CA000EC91E22BEC938FBFF6CF3FB7F894809175
:102CB0007A0290917B02A0917C02B0917D0226B5B0
:102CC000A89B05C02F3F19F00196A11DB11D3FBF64
:102CD000BA2FA92F982F8827BC01CD01620F711D33
:102CE000811D911D42E0660F771F881F991F4A952D
:102CF000D1F708958F929F92AF92BF92CF92DF92B9
:102D0000EF92FF926B017C010E9455164B015C0112
:102D1000C114D104E104F104B9F00E9455166819F8
:102D200079098A099B09683E73408105910580F302
:102D300021E0C21AD108E108F10888EE880E83E08C
:102D4000981EA11CB11CE4CFFF90EF90DF90CF90B4
:102D5000BF90AF909F908F9008958F929F92AF9267
:102D6000BF92CF92DF92EF92FF920F931F93CF9378
:102D7000DF936C017B018A0180911301882309F4A0
:102D80005CC080916405882309F457C08091840257
:102D900080FF05C08091E00082608093E000E80140
:102DA000B12C8AEFA82E93E0892E2AE3922E209749
:102DB00011F4BB20D9F10E94D21381110AC0AA9448
:102DC000AA20D9F161E070E080E090E00E947A16DC
:102DD000EECF8C171D0611F00CF08C2F9FB7F894D6
:102DE0008092E9002091E80025FD02C09FBFDFCF5F
:102DF000282F30E0C21BD30BF701815020F0419106
:102E00004093F100FACFE20EF31EBB2021F0909226
:102E1000E800B12CEBCF8091E80085FDE7CF9092E0
:102E2000E800BB24B394209709F3F3CF5D9A84E6BE
:102E300080938302101611063CF081E090E0F601C9
:102E40009383828310E000E0C801DF91CF911F914E
:102E50000F91FF90EF90DF90CF90BF90AF909F9039
:102E60008F9008952FB7F894609176027091770251
:102E700080917802909179022FBF0895DC01169617
:102E8000ED91FC91179712968C91481B477081E049
:102E900090E001C0880F4A95EAF7E60FF11D3081F6
:102EA000222319F0832B8083089580958323FBCF01
:102EB000FB014181DC0112962C911297421768F0B8
:102EC00013962C911397241740F0608115962C913E
:102ED000621718F424810C943E170895FC01808138
:102EE0009281980F92832181921760F494819F5F61
:102EF00094839381890F821710F08FEF820F838361
:102F000081E0089580E00895FC0112828081815063
:102F1000838314820895DB01ED91FC9109940F9352
:102F20001F93CF93E091A805F091A905309719F070
:102F30008AE995E0099500919C0510919D05E09125
:102F4000CB05F091CC0582E00995E091CB05F0919D
:102F5000CC0581E0099530E020E045E1B8018AE93F
:102F600095E00E948B17C82F882341F02DEC35E0A7
:102F700047E1B8018AE995E00E948B17E091CB0503
:102F8000F091CC0580E009958C2FCF911F910F9186
:102F90000895BF92CF92DF92EF92FF920F931F930B
:102FA000CF93DF93E82ED62F062F020F842F877042
:102FB000D82E942F919597708FEFF82E01C0FF0CAB
:102FC0009A95EAF7CC24CA94BE2CB40EC8EFC40F6D
:102FD000C87F48E04E0DC40F1E2D60919C05709176
:102FE0009D051093B605D093B7051092B905C09210
:102FF000B80526EB35E04BE38AE995E00E948B1794
:10300000185F8B2D811B883040F7DD2099F060918F
:103010009C0570919D05C093B605D093B70510929D
:10302000B905F092B80526EB35E04BE38AE995E067
:103030000E948B17DF5FD013CFCFDF91CF911F910D
:103040000F91FF90EF90DF90CF90BF9008950F9376
:103050001F93CF93DF931F92CDB7DEB700919C05EE
:1030600010919D05E091CB05F091CC0582E009958A
:1030700030E020E04AE0B8018AE995E00E948B1731
:10308000182FE091CB05F091CC0583E00995E091F4
:10309000CB05F091CC0580E009951123B9F1609141
:1030A0009C0570919D059E012F5F3F4F46E48AE984
:1030B00095E00E948B17898180939A0560919C0509
:1030C00070919D059E012F5F3F4F47E48AE995E08F
:1030D0000E948B17898180939B0560919C0570915C
:1030E0009D0530E020E048E48AE995E00E948B17D6
:1030F0008093A50560919C0570919D052DEC35E0B0
:1031000047E18AE995E00E948B1711E0812F0F902B
:10311000DF91CF911F910F910895CF93DF9380910D
:10312000D305811105C081E08093D3050E94271843
:10313000C0919C05D0919D05E091CB05F091CC0507
:1031400082E00995E091CB05F091CC0581E00995ED
:1031500030E020E044E1BE018AE995E00E948B174F
:103160002DEC35E047E1BE018AE995E00E948B171E
:10317000E091CB05F091CC0580E0DF91CF910994EF
:103180000B96FC01849108950A96FC0184910895A0
:10319000FC01849108950E94C818882321F0823090
:1031A00011F083E0089586E00895FC01E60FF11D1B
:1031B000849190E0982F88273196E4918E0F911D8D
:1031C000089568E00C94D51866E00C94D5182EE9A3
:1031D0003FE0009709F40895F9013197F1F701975D
:1031E000F8CFCF93DF9300D0CDB7DEB720ED37E037
:1031F0003A8329839091BC00982311F081E00FC09D
:1032000029813A81232B81F48091620581FDF6CFDB
:103210008091610581110DC091E0909361050F903F
:103220000F90DF91CF91089529813A812150310982
:10323000DFCF80E0F4CF84EA8093BC0061E080E8D7
:103240000E94F118811102C080E008958091B900B8
:10325000887F883051F0803141F080916105811183
:10326000F3CF82E080936105EFCF88E78093BB00C6
:1032700084E88093BC0062E080E80E94F118882313
:1032800019F38091620581FD05C08091B900887FA6
:10329000883119F781E0089584E98093BC0064E0E7
:1032A00080E10C94F1188093BB0084E88093BC000B
:1032B00063E080E80E94F1188823A1F08091620504
:1032C00081FD0DC08091B900887F883241F08091E6
:1032D0006105811106C092E090936105089581E037
:1032E000089580E008951092610508958093620525
:1032F0001092B90084FF05C08CE08093B8000C9454
:10330000731988E4FACFCF93DF93FC0123A522231E
:1033100089F0EC010E941B19811104C080E0DF914B
:10332000CF9108958EA1811107C00E94531988235F
:10333000A9F31BA681E0F3CF80E4F7CF0F931F938F
:10334000CF93DF93C62FD42F8901633001F138F476
:10335000613099F0623009F449C0C1E012C06630B2
:1033600029F1673091F16530C1F70E94831981110D
:1033700017C00E944C19C0E004C0FC0186A50E9441
:1033800076198C2FDF91CF911F910F910895FC0139
:1033900016A221E023A74111E0CF0E944C19DDCFF6
:1033A0008D2F0E9453198111D8CFE3CF0E9483192A
:1033B0008823F9F2DD2389F2F80181918F010E94BF
:1033C00053198823B1F2D150F5CF0E948319882375
:1033D00081F2DD2311F2F80184910E945319C82F64
:1033E000882379F20F5F1F4FD150F3CFFC0146A322
:1033F00021E023A7B2CFDB011496ED91FC9130E0E0
:1034000020E065E00994DB011496ED91FC9130E039
:1034100020E062E00994DB011496ED91FC9130E02C
:1034200020E063E00994CF92DF92EF92FF920F9336
:103430001F93CF93DF938C017B016A0180E0F6013B
:10344000C491811110C081E0CF3F49F04C2FB701EA
:10345000C8010E94FB19882309F444C080E0BFEF33
:10346000CB1ADB0AECCF4FEFCF3F89F3CE3FD9F138
:10347000C03FA0F7C03E38F04C2F4F70B701C801D5
:103480000E94031AEBCFC03D38F04C2F4F70B701AC
:10349000C8010E940B1AE2CFC03CF8F0D701149685
:1034A000ED91FC9130E020E040E064E0C801099536
:1034B000C295C07FCE5FD0E0CE010E94E718D70151
:1034C0001496ED91FC9130E020E041E064E0C80109
:1034D0000995CE010E94E718C1CFC7FDBFCF8C2F41
:1034E00090E0F8CF80E0DF91CF911F910F91FF9096
:1034F000EF90DF90CF900895AF92BF92CF92DF927E
:10350000FF920F931F93CF93DF936C018B01F42EE7
:10351000E90180E1481709F47EC0841778F1AAE038
:103520004A1709F461C0BFE04B1709F47FC0F801E6
:1035300002811381F2E3FF1609F4DDC0FF1508F4E0
:103540008EC085E1F81609F4DBC0A7E1FA1609F48C
:10355000ECC0B4E1FB1265C0D8011696ED91FC9168
:10356000179715968C918E0F9F2F911D11928E1784
:103570009F07E1F7C8010E94841753C0E1E14E178D
:1035800009F451C0F5E14F13D2CFFB01A280B38003
:1035900040EC50E0C6010E94131AD50114964C91DC
:1035A000406BB801C6010E94FB1941E0B801C60199
:1035B0000E94031AF50126813781D8011496ED91F6
:1035C000FC91D50115964C9166E0C60109958111D3
:1035D0001CC080E0DF91CF911F910F91FF90DF9091
:1035E000CF90BF90AF900895DB011496ED91FC91C0
:1035F00030E020E042E061E0C601099548EC50E08F
:10360000B801C6010E94131A92CF40E0B801C6016A
:103610000E940B1A8CCF47EB50E0B801C6010E9404
:10362000131A81E0D7CF4CEA50E0F7CF41E0C60152
:103630000E940B1A40E0B801C6010E94031A41E83B
:10364000B801C6010E94FB194881B801C6010E9459
:10365000FB1940E0B801C6010E940B1AE2CFE6E474
:10366000FE1609F46CC0F7E4FF1609F46DC08BE395
:10367000F812D7CF99818B8138E0390F813031F042
:10368000833011F0392F02C0392F985021E0D80132
:1036900013964C91491708F420E041E0391708F0DF
:1036A00040E091E0F8015281351708F490E0322FA4
:1036B000342B932319F4242309F4B3CFFA80D12CAB
:1036C000C12C843048F490E0FC01EC5DFE4FC080DA
:1036D000805E9E4FDC01DC90F7FE04C0BE01C80195
:1036E0000E94581788818C0D888389818D0D89836C
:1036F000FF0C91F796CFBE01C8010E94581791CFD9
:10370000C8010E946E17882309F463CFD80116966A
:10371000ED91FC91179715968C918E0F9F2F911D0F
:1037200011928E179F07E1F77CCF1882F8018281F2
:103730008983858181508A8383818B8372CFD8016D
:1037400015968C9188836DCFF8018181FBCF0F9303
:10375000FC010150040F84A996A9941788F008175A
:1037600010F4041778F42150260F83A995A9961711
:1037700058F0281760F481E0261720F40F9108957F
:10378000081778F780E0FACF2817A8F7FBCF81E079
:10379000F5CFFF920F931F93CF93DF93C82FD62FB0
:1037A000142FF22E022F242F462F682F8AE995E03E
:1037B0000E94A71B882359F02F2D412F6D2F8C2F8E
:1037C000DF91CF911F910F91FF900C94C917DF915A
:1037D000CF911F910F91FF9008955F926F927F920A
:1037E0008F929F92AF92BF92CF92DF92EF92FF9211
:1037F0000F931F93CF93DF93EC01C62E142FD22E7D
:10380000EC80FD80C7010E94C818082F8C819D8123
:103810000E94CB18982EAA24AA94013011F48FE0AC
:10382000A82E8C819D810E94C418082F8C819D81B7
:103830000E94C018B82E8C819D810E94E11820E65C
:103840002D1570F4009761F0E80EF91E01E6BD1425
:10385000C0F4188A1B8A1C8A198A1A8A80E05AC006
:103860008C819D810E94E418E0E4ED1530F400970E
:1038700021F0E80EF91E01E4EACFF1E1EF0EF11CB0
:10388000E6CFB01630F3892D90E0F70124912F3F59
:1038900039F4FFEFEF1AFF0AB016D9F20F5FF5CF38
:1038A000D0125FC08C819D810E94C81897012F5F44
:1038B0003F4FF701882319F0823009F03BC0849113
:1038C0008B8BF90124912C8BF7013396E491E88BD3
:1038D000F7013496E491E98BF7013596E491EA8B90
:1038E000E114F10409F4BACF8C819D810E94CB18B8
:1038F000A82EDB88BC888989C80E1B198A89181BE9
:103900000B2D2D2D412F6C2DCE010E94A71B811157
:1039100031C08889DF91CF911F910F91FF90EF9077
:10392000DF90CF90BF90AF909F908F907F906F90DF
:103930005F9008958491982F9F7092509A8B8295F2
:103940008F70898BF9012491822F8F708C8B229537
:103950002F702B8BF7013296E491E295EF70E88B94
:10396000BFCF3296E491EA21E80FF92FF11DEE0E58
:10397000FF1E92CFEA0CF11CF7E0DF0ED694D6942E
:10398000D694012F0B0D4E012CE1820E911C6D2C53
:10399000712C101709F4BDCF5C2C570112C0F50132
:1039A00084916A817B815C8E1D8F1F8E8E8F940126
:1039B0004BE3CE010E948B17FFEFAF1ABF0A28E03E
:1039C000520E8A2D8E198D1550F3E60CF71C1F5FD1
:1039D000E0CFEF92FF920F931F93CF93DF93F82ED8
:1039E000062FE42E152FE091AF05F091B0058AE97E
:1039F00095E00995080FCE2DD12F10E029912111C6
:103A000008C0812FDF91CF911F910F91FF90EF9010
:103A10000895402F6F2D8AE995E00E94ED1BF80E66
:103A2000180FECCFCF92DF92EF92FF920F931F937C
:103A3000CF93DF93EB01142F402F622F6150770B50
:103A40006B0194E0CC0CDD1C9A95E1F79091770620
:103A50000D2C000CEE08FF08981324C02295207F3F
:103A600061E0620F2EE08EEF810F0E94C91B81E0A2
:103A70008093BA05C701B6010E94F02A2EE23AEB04
:103A800048EE51E40E94B42B0E94202CAE01812FFD
:103A9000DF91CF911F910F91FF90EF90DF90CF902A
:103AA0000C94E91C1092BA05E5CFDC01EC91EC30E6
:103AB00090F511968C91119728E830E0281B310978
:103AC00087FD3395220F331F220F331F62177307B1
:103AD00084F012968C9128E532E0281B310987FD8D
:103AE0003395220F331F220F331F621773070CF415
:103AF0009B0122503109220F331F4FB7F8948E2FAC
:103B000090E0FC01EE0FFF1FE80FF91FEB59FA4F91
:103B1000328321834FBF0895DF92EF92FF920F937C
:103B20001F93CF93DF93EC01D62E1CAD0BAD7C0120
:103B300084E0E80EF11CE98DFA8DC7010995412F4B
:103B4000480F2D2D602FC7010E94ED1B9BAD890FE3
:103B50008BAF81E090E0DF91CF911F910F91FF90AB
:103B6000EF90DF900895089590E080E008958EBD75
:103B700000000DB407FEFDCF8EB50895FC01019045
:103B80000020E9F73197AF01481B590BBC0185EDC7
:103B900095E00C94AD16CF93DF930E94BE1DEC010F
:103BA0008DE591E00E94BE1D8C0F9D1FDF91CF918E
:103BB00008950F931F930091290610912A062091D2
:103BC0002B0630912C0640E052E16AE770E080E07D
:103BD000041715072607370740F47695679557951C
:103BE00047958F5F8630A1F787E0982F906A96956A
:103BF000809581709CBD8DBD80E01F910F910C94CC
:103C00000D16CF93DF93D82FC62F0E94D91D8D2F6D
:103C100080620E94B71D80932D068C2F0E94B71DD5
:103C2000DF91CF910C9421166091390661FD0AC095
:103C300062606093390680E00E94011E8BE19EE481
:103C40000197F1F70895CF93C82F0E94D91D8C2FAB
:103C50000E94B71D80932D068FEF0E94B71DC82FBD
:103C60000E9421168C2FCF910895CF93DF93EC0102
:103C700086E00E94231E877D2197E1F045E550E014
:103C800060E070E040934006509341066093420626
:103C900070934306C0E0C82B6C2F86E00E94011E83
:103CA00086E00E94231E91E0C81390E0892FDF91E7
:103CB000CF91089541E450E060E070E04093400609
:103CC000509341066093420670934306C8E0E3CFE9
:103CD000FF920F931F93CF93DF93C82FF62E072FDA
:103CE000142F0E94D91D8C2F80620E94B71D8093D3
:103CF0002D06CF2DD02F115020F089910E94B71D95
:103D0000FACFDF91CF911F910F91FF900C94211664
:103D1000CF93C82F0E94D91D8C2F0E94B71D80936E
:103D20002D06CF910C9421160E94D91D80E50E948A
:103D3000B71D80932D0683E70E94B71D0C942116B2
:103D4000FC0180819181009711F00C94FD2C089565
:103D500087E892E00C94A01E0F931F93CF93DF93FC
:103D6000EC0188819981009759F02A813B812617BF
:103D7000370730F081E0DF91CF911F910F910895C7
:103D80008B016F5F7F4F0E94862D009759F09983BA
:103D900088831B830A832C813D81232B59F7FC01E7
:103DA0001082E8CF80E0E7CFEF92FF920F931F934E
:103DB000CF93DF93EC017B018A01BA010E94AC1E14
:103DC00028813981811114C02115310519F0C901EB
:103DD0000E94FD2C198218821D821C821B821A826D
:103DE000CE01DF91CF911F910F91FF90EF90089539
:103DF0001D830C83B701C9010E944C2EF1CFFC0139
:103E0000118210821382128215821482FB010190AA
:103E10000020E9F73197AF01461B570B0C94D41ED5
:103E2000CF93DF93EC01FB01049686179707B9F057
:103E3000608171816115710531F044815581DF9197
:103E4000CF910C94D41E8C819D81009711F00E941B
:103E5000FD2C1D821C82198618861F821E82DF910E
:103E6000CF9108951F920F920FB60F9211248F9346
:103E70009F938091E1009091E100937F9093E10006
:103E800083FF0FC01092E90091E09093EB00109235
:103E9000EC0092E39093ED001092640598E090930B
:103EA000F00082FF22C093E09093E9009091F2002D
:103EB000992319F09AE39093E80090918302992353
:103EC00041F090918302915090938302911101C02F
:103ED0005D9890916305992341F09091630591500D
:103EE00090936305911101C0289884FF18C08091B8
:103EF000E2008E7E81608093E2008091E1008F7EFF
:103F00008093E100809184028E7E806180938402A0
:103F10009F918F910F900FBE0F901F90189580FF6B
:103F2000F7CF8091E2008E7E80618093E2008091E5
:103F3000E1008E7E8093E100809184028E7E81601C
:103F4000E5CF1F920F920FB60F921124CF92DF92FE
:103F5000EF92FF920F931F932F933F934F935F9393
:103F60006F937F938F939F93AF93BF93EF93FF9341
:103F7000CF93DF93CDB7DEB76C97DEBFCDBF109286
:103F8000E9008091E80083FF25C068E0CE014596F6
:103F90000E94AF1482EF8093E8008D8987FF39C0BB
:103FA0009091E80090FFFCCF982F907609F034C1F3
:103FB0009E894F89588D2F89F88C911131C0803896
:103FC00061F5809185028093F1001092F1008EEFEF
:103FD0008093E8006C960FB6F894DEBF0FBECDBF9D
:103FE000DF91CF91FF91EF91BF91AF919F918F9111
:103FF0007F916F915F914F913F912F911F910F9101
:10400000FF90EF90DF90CF900F900FBE0F901F901A
:1040100018959EEF9093E800C7CF1092F100D5CF8E
:10402000913059F48111D3CF4130510581F68091FF
:1040300085028D7F80938502CACF933049F4811128
:10404000C6CF4130510519F6809185028260F2CFCA
:10405000953041F48091E80080FFFCCF20682093E8
:10406000E300B5CF963009F0A9C00B8D1C8D22E07E
:104070001092E9001092810210928002F2122EC07A
:1040800010927F0210927E020E947E141F8299E09D
:104090009983FA8291E09E8390EA98879AEF9987B4
:1040A0002091800230918102275F3F4F3C832B8318
:1040B0008D831092E9001092810210928002109379
:1040C0007F0200937E0249E050E0BE016F5F7F4FA8
:1040D00080E00E9458140E947E1479CF10937F02D2
:1040E00000937E020E94E313DC0112960D911C9155
:1040F0000115110509F451C1D801ED91FC9104801D
:10410000F581E02DBE016B5E7F4FC80109950097D8
:1041100009F03EC1F80100851185EACFF3E0FF12F6
:104120000EC08F89882309F440C0823061F440E8D2
:104130006DE08DE891E00E942514811148CF81E265
:104140008093EB0047CF813029F440E86BE081E8B1
:1041500091E0F1CF833099F70E94E313DC011296CE
:10416000ED90FC908E010F5F1F4F6801E114F10488
:1041700079F0D701ED91FC910680F781E02DB8012F
:10418000C7010995080F111DF701E084F184EECFF6
:10419000D8011C92F60101900020E9F73197BF0188
:1041A0006C197D0940E0C601C6CF6BE671E0FB01EA
:1041B000449150E080E80E94581409CF973009F4E8
:1041C000BECF983021F481E08093F10000CF993088
:1041D00009F0FDCE837009F0B2CFE9E2F1E081E0B1
:1041E00031E096E32191222371F08093E90030932E
:1041F000EB00DF0111972C912093EC009093ED00E0
:104200008F5F873079F78EE78093EA001092EA009B
:104210008F8980936405DBCE8B8D9C8D1092E90095
:10422000109281021092800290937F0280937E020E
:10423000898D811192C08E899D89913A49F481328C
:1042400009F07DCF47E050E06CE071E080E0B3CF53
:10425000913209F074CF833269F48F89988DB0E080
:10426000A0E08093080190930901A0930A01B09304
:104270000B01ADCE803269F48091E80082FFFCCF63
:1042800067E08CE091E00E94AF148BEF8093E80030
:104290009ECE823209F09BCE8F8980931301EEEF80
:1042A000FFE7859194918B3F9C4D51F1E0E0F8E060
:1042B00080910C0190910D01A0910E01B0910F0120
:1042C000803B9440A105B105F1F48091130180FD7C
:1042D0001AC0EE3F8AE0F80789F587E797E79183F0
:1042E0008083809160008093820288E19BE00FB61A
:1042F000F894A895809360000FBE9093600067CEFD
:10430000EEEFFAE0D5CF808191818737974709F0AA
:104310005ECEA89580916000886180936000809156
:10432000820280936000EE3F2AE0F20789F08091DC
:10433000FE0A9091FF0A9183808349CE808191810A
:104340008737980751F29093FF0A8093FE0AC5CFF2
:104350001092FF0A1092FE0A3ACE0E94E313DC018B
:1043600012960D911C910115110509F4E8CED801A2
:10437000ED91FC910190F081E02DBE016B5E7F4FCD
:10438000C8010995811123CEF80100851185EBCF75
:10439000181619060CF41BCED2CEF1E0FF12BECED9
:1043A0006FE671E004CF1F920F920FB60F921124A7
:1043B0002F933F938F939F93AF93BF9380917602F8
:1043C00090917702A0917802B091790230917502B4
:1043D00023E0230F2D3758F50196A11DB11D209321
:1043E00075028093760290937702A0937802B0933F
:1043F000790280917A0290917B02A0917C02B09127
:104400007D020196A11DB11D80937A0290937B02DB
:10441000A0937C02B0937D02BF91AF919F918F9149
:104420003F912F910F900FBE0F901F90189526E887
:10443000230F0296A11DB11DD2CF1F920F920FB66E
:104440000F9211242F933F934F935F936F937F931A
:104450008F939F93AF93BF93CF93DF93EF93FF938C
:1044600080917402C0918905D0E087FF24C010922A
:10447000850010928400809174028F5F8093740293
:1044800080917402082E000C990B8C179D0724F460
:10449000809174028C30C4F18091840090918500E9
:1044A000049680349C4908F47AC0809184009091ED
:1044B0008500049676C080917402082E000C990B3A
:1044C0008C179D07C4F6E09174028E2FEE0F990BA6
:1044D000FC01EE0FFF1FE80FF91FEB59FA4F808127
:1044E00086FFC9CFE09174028E2FEE0F990BFC016D
:1044F000EE0FFF1FE80FF91FEB59FA4F808160E0C4
:104500008F730E94DF15B7CF209184003091850012
:10451000E09174028E2FEE0F990BFC01EE0FFF1F3E
:10452000E80FF91FEB59FA4F81819281820F931F97
:104530009093890080938800E09174028E2FEE0F93
:10454000990BFC01EE0FFF1FE80FF91FEB59FA4F13
:10455000808186FF11C0E09174028E2FEE0F990BBF
:10456000FC01EE0FFF1FE80FF91FEB59FA4F808196
:1045700061E08F730E94DF15FF91EF91DF91CF9182
:10458000BF91AF919F918F917F916F915F914F916B
:104590003F912F910F900FBE0F901F90189580E4C0
:1045A0009CE990938900809388008FEF8093740238
:1045B000E3CFCF931092D8051092D70588EE93E001
:1045C000A0E0B0E08093D9059093DA05A093DB05D5
:1045D000B093DC0583E491E09093D6058093D505F4
:1045E0008FEF9FEF9093E2058093E105EAE8F5E015
:1045F00026E935E04FEF68EB7BE0809189058C3050
:1046000008F016C191E0980F90938905808390E09F
:10461000DC01AA0FBB1FA80FB91FAB59BA4F1296E6
:104620007C936E93119733962E173F0731F71092B4
:1046300099051092980585E591E0909397058093F0
:1046400096051092D1051092D2051092D3051092C2
:104650009F0510929E051092A1051092A005109240
:10466000A30581E08093A20582E28093A4051092C5
:10467000A9051092A805EDEBF5E08FEF819395E089
:10468000EB3CF907D9F7C1E0C093BA058DE593E19A
:104690009093B0058093AF05C093B1051092B20519
:1046A0001092B30580E48093B4051092B5058CE5B3
:1046B00093E19093CC058093CB0584E191E09093B6
:1046C0009D0580939C0582E18093C8050E94271870
:1046D00085E591E090939705809396056FE571E0ED
:1046E00088E796E00E94FF1EC0937406109275063C
:1046F0001092760646E050E060E671E088E796E0CA
:104700000E94D41EC093770610926306109264062E
:104710001092720610926506109267061092680653
:104720001092690610926A0610926B0610926C063F
:1047300010926D0610926E0610926F06109270061F
:104740001092660610927106109273061092490636
:10475000109252061092530610925406109255066B
:1047600088EB9BE090934F0680934E068CED95E08E
:104770009093510680935006C0934A0610924B06C0
:10478000109256061092570610925806109259062B
:10479000C0934D0610924C0610925A0610925C0679
:1047A0001092600610925E0610925F0610925B06F1
:1047B00010925D06C09361061092620687E691E052
:1047C0000E94CB1DC093480684E0809327068CE0AE
:1047D0008093280680E896E9A8E9B0E0809329064E
:1047E00090932A06A0932B06B0932C0680E2809328
:1047F0002E0610923A0610923B0685E080933D0605
:10480000C0933E0610923F0685E090E0A0E0B0E045
:104810008093440690934506A0934606B0934706BE
:1048200084ED95E09093260680932506CF91089518
:104830004083F9CECF93DF93CDB7DEB72E970FB677
:10484000F894DEBF0FBECDBF789484B5826084BD7E
:1048500084B5816084BD85B5826085BD85B5816084
:1048600085BD80916E00816080936E001092810002
:1048700080918100826080938100809181008160BD
:10488000809381008091800081608093800080917E
:10489000910082608093910080919100816080936B
:1048A0009100809190008160809390008091C10080
:1048B00084608093C1008091C10082608093C100B8
:1048C0008091C10081608093C1008091C3008160AC
:1048D0008093C3008091C00082608093C00080916B
:1048E000C20081608093C20080917A0084608093CE
:1048F0007A0080917A00826080937A0080917A00B9
:10490000816080937A0080917A00806880937A0039
:104910001092640510928502109284028091D70053
:1049200081608093D70080EA8093D80089B5806148
:1049300089BD89B5826089BD09B400FEFDCF61E003
:1049400070E080E090E00E947A168091D8008F7C21
:1049500080618093D8008091E000807F8093E000A8
:104960008091E1008E7E8093E1008DE08093E200F3
:10497000559A209A5D9828988FEF9FEF9093E205C3
:104980008093E1051FB7F89480918602811127C0BA
:10499000E9EDF1E08491EAEBF1E09491E82FF0E0A9
:1049A000EE0FFF1FE556FE4FA591B491EC91E92360
:1049B00021F461E081E10E94DF1561E081E10E9464
:1049C00024168CB580618CBD8CB580648CBD61E093
:1049D0008FE00E94241661E080E10E9424168091FD
:1049E00086028F5F809386021FBF809127068F3FCC
:1049F00009F47CC0909128069F3F09F477C089177D
:104A000041F061E00E94241661E0809128060E9436
:104A100024168091270690912806891719F060E0E6
:104A20000E94DF1581E00E940D1665E070E080E0D5
:104A300090E00E947A166FE584E00E94011E90E0EB
:104A400080E00E94351E8DE10E94231E182F0E94D7
:104A5000941E8DE10E94231E91E0181390E0909324
:104A60003A06882341F0181302C00E94941E60E0A9
:104A70008DE10E94011E10923C0660E08CE10E94D4
:104A8000011E10923E066FE381E00E94011E63E06A
:104A900082E00E94011E80E280932E0611E1609167
:104AA0002E06812F0E94011E1F5F1731C1F763E0A0
:104AB00083E00E94011E85E080933D066CE40E9425
:104AC000011E60E787E00E94011E82EE0E94881EA0
:104AD00081EE0E94881E6CE080E00E94011E80E052
:104AE0000E94231E809339060E94141E60E081E01C
:104AF0000E94011E80913C06882351F08DE10E94A6
:104B0000231E682F6D7F8DE10E94011E10923C06CE
:104B100081E090E00E94351E81EE898380EF8A83D8
:104B20008B8388EE8C838D831E821F821886E8EE2D
:104B3000F1E0849140913D06BE016F5F7F4F0E947E
:104B4000681E82E00E94231EEEEEF1E0E49161E037
:104B500070E001C0660FEA95EAF7682B82E00E94D8
:104B6000011E68E785E00E94011E0E94141E6091EC
:104B7000390661606093390680E00E94011E60E79B
:104B800087E00E94011E80912706909128068917D0
:104B900019F061E00E94DF1580913B06882309F43B
:104BA000A6C140913D066FE276E08AE00E94681E51
:104BB00060E084E10E94241660E082E10E942416F5
:104BC00060E083E10E9424161FE2C12E11E0D12E85
:104BD0000AE815E08BE3E82E81E0F82E9CE0B92E80
:104BE00022E0A22ED7019D907D0161E0892D0E94D7
:104BF000241660E0892D0E94DF15F60191906F0167
:104C0000D8018C918C3008F053C061E0892D0E944E
:104C10002416F8018081282F30E0F901EE0FFF1FE4
:104C2000E20FF31FEB59FA4F292D2F739081907CDF
:104C3000922B9083D80111961C92119712961C9278
:104C40006B2D0E944F2C8B9DA001112430E020E0A1
:104C5000BA01620F731FFB01EE0FFF1FE60FF71F74
:104C6000EB59FA4F908196FD15C02F5F3F4F2C30C6
:104C7000310571F781110EC010928000A092810061
:104C80001092850010928400B19A80916F0082602A
:104C900080936F00D801EC918E2F90E0FC01EE0F15
:104CA000FF1FE80FF91FEB59FA4F80818064808362
:104CB0000D5F1F4FBFE3EB16B1E0FB0609F092CF8B
:104CC00061E08DE00E94DF1597E0992E11E08824C5
:104CD0008A9484E7282E86E0382E83E10E94B61558
:104CE00021E0019709F020E02093630684E10E940F
:104CF000B61521E0019709F020E02093640682E1D7
:104D00000E94B61521E0892B09F420E0209370065B
:104D100080916506281751F00E943217609368064B
:104D20007093690680936A0690936B060E9432170F
:104D3000C0906806D0906906E0906A06F0906B0615
:104D40006C197D098E099F096630710581059105F1
:104D500008F444C080917006909167068917B9F0F5
:104D600080936706882309F4D7C082E791E00E9408
:104D7000CB1D10937106109373060E943217609337
:104D80006C0670936D0680936E0690936F0680910B
:104D90007306882319F1809170068823F9F00E9428
:104DA0003217C0906C06D0906D06E0906E06F090C1
:104DB0006F066C197D098E099F09603D774081055A
:104DC000910560F080916606811108C01093660617
:104DD00089E991E00E94CB1D1092730680917006C4
:104DE000809365068091750681119FC00E948D1881
:104DF00020E440E860E080E00E94C91B1092BA0500
:104E000082E69DE10E9489134EEA51E060E285E16D
:104E10000E94E91C87EE94E10E9489134AEB51E05D
:104E20006DE280E50E94E91C1093BA050E948F177D
:104E30008111DECF109276068092750623E636E069
:104E4000309354052093530530925205209251051A
:104E50008091630680935A068091640680935C0675
:104E600020917206209360068091710680935E0601
:104E70008091660680935F0680917606809349064E
:104E80009091740690934D068111C7C00E9432170D
:104E9000AB01BC018091520690915306A09154063B
:104EA000B09155066A017B01C81AD90AEA0AFB0AC1
:104EB00080914E0690914F06092E000CAA0BBB0B59
:104EC000C816D906EA06FB0650F0409352065093E6
:104ED000530660935406709355061093750680E050
:104EE00090E0892B09F4F9CE0E940000F0CE82E018
:104EF0000E94231EEDEEF1E0E49121E030E001C0DC
:104F0000220FEA95EAF72095622F682382E00E943B
:104F1000011E10923B064CCE82E891E00E94CB1D10
:104F2000109372061092730632CF813099F50E9469
:104F30008D1820E440E860E080E00E94C91B1092D8
:104F4000BA0582E69DE10E9489134EEA51E06DE0C8
:104F500085E10E94E91C82E69DE10E94891349ECEB
:104F600051E060E282E00E94E91C8FE69AE00E9434
:104F70008913409178065091790666E382E00E9499
:104F8000E91C1093BA050E948F178111D2CF10939C
:104F9000760652CF823009F051CF0E948D1820E45E
:104FA00040E860E080E00E94C91B1092BA0582E6EA
:104FB0009DE10E94891342EC51E06EE082E00E9484
:104FC000E91C83EF91E00E9489130DE221E043E0A8
:104FD00060E671E081E00E94121D22E043E06EEC89
:104FE00071E082E00E94121D23E043E065ED71E074
:104FF00083E00E94121D05E321E042E36CED71E0C5
:1050000084E00E94121D1093BA050E948F1781112F
:10501000C6CF82E08093760611CF813009F041C27D
:1050200080916206882341F01092720680924B06AE
:1050300061E080E00E94DF1580915F06882341F0E7
:10504000109266061092710682E08093750647CF33
:1050500080914A069FEF980F923008F0BCC0809173
:105060006006882321F180916206811120C0E091C1
:105070004B06F0E0E55CFE4F60E080810E94DF15AA
:1050800080914B0690E001968370992780934B06A0
:10509000855C9E4F61E0DC018C910E94DF151092CF
:1050A000720668EC70E080E090E00E947A168091D1
:1050B000620681111092620680915A06882309F4D3
:1050C00072C0E0914B06F0E0EE0FFF1FED5CFE4F6B
:1050D000E080F180B4E2EB1ABAEFFB0A809161063E
:1050E000882371F010924C060E9432176093560686
:1050F0007093570680935806909359061092610654
:105100008091500690915106F701E81BF90BCF01F1
:10511000F7FF03C09195819591090697C4F10E940C
:105120003217E0914C06E43630F521E02E0F209343
:105130004C06409056065090570660905806709066
:1051400059069B01AC012419350946095709290163
:105150003A0120914B069E9EF0011124EB56FD4F23
:1051600040915006509151065183408342825382B0
:1051700064827582268360935606709357068093E7
:10518000580690935906F0925106E092500680918D
:105190004B0633E0839FC0011124B70186579A4F15
:1051A0000E94551D9CCE80915C06ACEDEA2EA5E0D8
:1051B000FA2E882309F492CFE0914B06F0E0EE0F2F
:1051C000FF1FED5CFE4F808191812CED35E0790170
:1051D000E81AF90A83CF833009F091C0EBE3CE2EB1
:1051E000E1E0DE2EFAE8EF2EF5E0FF2E6CED75E043
:1051F000C7010E94551D60E0D6018D916D010E948E
:10520000DF15B3E0EB0EF11CEFE3CE16E1E0DE06B6
:1052100069F700E080914C06081708F050C0602E36
:10522000712C969CF001979CF00D1124EB56FD4FCC
:10523000E6806AE8A62E65E0B62E7BE3472E71E095
:10524000572EF12CD2018D912D01FE102FC061E05F
:105250000E94DF15F394B3E0AB0EB11CE4E0FE1244
:10526000F1CFF3E0EF9E70011124970126573A4FDA
:105270007901969CC001979C900D1124AC014B566E
:105280005D4F5A01DA016D917C91C9010E94551D53
:10529000F50162817381848195810E947A166CED9B
:1052A00075E0C7010E94551D0F5FB4CF60E00E94FA
:1052B000DF156CED75E0C5010E94551DCBCF4AE8A6
:1052C000A42E45E0B42E5BE3E52E51E0F52E60E020
:1052D000D7018D917D010E94DF156CED75E0C50150
:1052E0000E94551DB3E0AB0EB11CCE14DF0479F75C
:1052F00082E10E94B615892B09F470CFF0CD84307D
:1053000009F0EDCD85ED95E00E945015892B09F44B
:10531000E6CD85ED95E00E940E15082F80918D0257
:10532000811108C06FE571E087E892E00E94FF1EDE
:1053300010938D0220918B0230918C020A3009F07B
:105340008EC02115310509F45EC0E0918702F0910D
:105350008802309709F457C08081082E000C990B01
:105360007C01E1E3EE1AF1082230310508F44DC06A
:10537000E0918702F0918802309709F446C00181DC
:1053800084EE91E00E94BE1D602F85ED95E00E94A5
:10539000E9148DE591E00E94BE1D60E08DE00E9461
:1053A000DF1560E08BE00E94DF1560E088E00E947E
:1053B000DF1560E087E00E94DF15F4E0EF16F104EE
:1053C000C8F461E0F701E55CFE4F80810E94DF15C3
:1053D0000C34E9F4C701880F991FFC01ED5CFE4F06
:1053E0006081718164527A4F8E0D9F1D86579A4F4E
:1053F0000E94551D50E040E06FE571E087E892E0C3
:105400000E94D41E7FCF80E0A8CF00E0B9CF023544
:1054100069F4C701880F991FFC01ED5CFE4F2081E4
:1054200031816CED75E0621B730BDECF093411F72F
:105430006CED75E08AE895E00E94551D6CED75E015
:105440008DE895E00E94551D6CED75E080E995E0D2
:105450000E94551D6CED75E083E995E0C9CF098781
:105460001A8679014FEFE41AF40AB70187E892E04F
:105470000E94AC1E882309F445CF20918702309109
:10548000880280918B0290918C02BE01675F7F4FF2
:10549000820F931F0E944C2EF0928C02E0928B029E
:1054A00031CF823009F082C060E08DE00E94DF15CC
:1054B00060E08BE00E94DF1560E088E00E94DF156D
:1054C00060E087E00E94DF1580915E068823F1F09E
:1054D00000914A06013009F041C060E671E0CE015A
:1054E00009960E94FF1EBE01675F7F4F84E796E02A
:1054F0000E94101FCE0109960E94A01E00937506FF
:1055000010936206109271061092720680915A06EC
:10551000882309F445C080915B06811109C0809100
:105520004A06843018F48F5F80934A0610935B0616
:1055300080915C068823B9F180915D06811109C0D4
:1055400080914A06823018F0815080934A06109369
:105550005D0680914A0680937706C1CC0230B1F493
:10556000109361066EEC71E0CE0109960E94FF1E59
:10557000BE01675F7F4F84E796E00E94101FCE0157
:1055800009960E94A01E10937506BACF65ED71E0D2
:10559000033051F3043009F0B3CF6AEE71E0E4CF89
:1055A00010925B06C5CF10925D06D3CF833009F011
:1055B00096CC222309F493CC10927206913021F4F8
:1055C00082E0809374068BCC923009F088CC1093E3
:1055D000740685CC88E796E00C94A01EE89409C078
:1055E00097FB3EF490958095709561957F4F8F4F16
:1055F0009F4F9923A9F0F92F96E9BB279395F6952C
:10560000879577956795B795F111F8CFFAF4BB0FA9
:1056100011F460FF1BC06F5F7F4F8F4F9F4F16C00D
:10562000882311F096E911C0772321F09EE8872F97
:10563000762F05C0662371F096E8862F70E060E053
:105640002AF09A95660F771F881FDAF7880F9695CC
:10565000879597F9089597F99F6780E870E060E073
:1056600008959FEF80EC089500240A9416161706FB
:1056700018060906089500240A9412161306140643
:1056800005060895092E0394000C11F4882352F0A6
:10569000BB0F40F4BF2B11F460FF04C06F5F7F4F5E
:1056A0008F4F9F4F089557FD9058440F551F59F045
:1056B0005F3F71F04795880F97FB991F61F09F3FFF
:1056C00079F087950895121613061406551FF2CF28
:1056D0004695F1DF08C0161617061806991FF1CF78
:1056E00086957105610508940895E894BB2766279F
:1056F0007727CB0197F908952F923F924F925F92AF
:105700006F927F928F929F92AF92BF92CF92DF92D1
:10571000EF92FF920F931F93CF93DF93CDB7DEB736
:10572000CA1BDB0B0FB6F894DEBF0FBECDBF0994CA
:105730002A88398848885F846E847D848C849B8421
:10574000AA84B984C884DF80EE80FD800C811B812F
:10575000AA81B981CE0FD11D0FB6F894DEBF0FBE5E
:10576000CDBFED0108955058BB27AA270E94CB2B2F
:105770000C94422B0E94342B38F00E943B2B20F0DB
:1057800039F49F3F19F426F40C94312B0EF4E09574
:10579000E7FB0C942B2BE92F0E94532B58F3BA17DD
:1057A000620773078407950720F079F4A6F50C9437
:1057B000752B0EF4E0950B2EBA2FA02D0B01B9011D
:1057C00090010C01CA01A0011124FF27591B99F077
:1057D000593F50F4503E68F11A16F040A22F232F83
:1057E000342F4427585FF3CF469537952795A795D3
:1057F000F0405395C9F77EF41F16BA0B620B730B7A
:10580000840BBAF09150A1F0FF0FBB1F661F771FEA
:10581000881FC2F70EC0BA0F621F731F841F48F49F
:10582000879577956795B795F7959E3F08F0B0CF28
:105830009395880F08F09927EE0F9795879508950F
:105840000E945B2B88F09F5798F0B92F9927B7518A
:10585000B0F0E1F0660F771F881F991F1AF0BA9514
:10586000C9F714C0B13091F00E94752BB1E00895D2
:105870000C94752B672F782F8827B85F39F0B93FC4
:10588000CCF3869577956795B395D9F73EF49095C7
:105890008095709561957F4F8F4F9F4F0895991B0D
:1058A00079E004C0991F961708F0961B881F7A9517
:1058B000C9F780950895EE0FFF1F0590F491E02D34
:1058C00009940F931F93CF93DF938230910510F4C7
:1058D00082E090E0E0918006F091810630E020E0E7
:1058E000B0E0A0E0309799F42115310509F44AC0E1
:1058F000281B390B24303105D8F58A819B8161152D
:10590000710589F1FB0193838283FE0111C04081FF
:1059100051810281138148175907E0F04817590750
:1059200099F4109761F012960C93129713961C93AA
:105930003296CF01DF91CF911F910F91089500937F
:10594000800610938106F4CF2115310551F04217DE
:10595000530738F0A901DB019A01BD01DF01F8010D
:10596000C1CFEF01F9CF9093810680938006CDCF10
:10597000FE01E20FF31F8193919322503109398385
:105980002883D7CF20917E0630917F06232B41F4C8
:1059900020911C0130911D0130937F0620937E06DB
:1059A00020911A0130911B012115310541F42DB7C9
:1059B0003EB740911E0150911F01241B350BE09111
:1059C0007E06F0917F06E217F307A0F42E1B3F0B33
:1059D0002817390778F0AC014E5F5F4F2417350761
:1059E00048F04E0F5F1F50937F0640937E068193D1
:1059F00091939FCFF0E0E0E09CCFCF93DF930097AF
:105A0000E9F0FC01329713821282A0918006B091D6
:105A10008106ED0130E020E01097A1F42081318172
:105A2000820F931F20917E0630917F062817390739
:105A300009F061C0F0937F06E0937E06DF91CF917D
:105A40000895EA01CE17DF07E8F54A815B819E01E0
:105A500041155105B1F7E901FB83EA834991599159
:105A6000C40FD51FEC17FD0761F480819181029668
:105A7000840F951FE90199838883828193819B8399
:105A80008A83F0E0E0E012968D919C911397009745
:105A9000B9F52D913C911197CD010296820F931F7C
:105AA00020917E0630917F062817390739F6309706
:105AB00051F51092810610928006B0937F06A09354
:105AC0007E06BCCFD383C28340815181840F951F52
:105AD000C817D90761F44E5F5F4F88819981480FDD
